{
  "_format": "hh-sol-artifact-1",
  "contractName": "CollectionFactory",
  "sourceName": "contracts/CollectionFactory.sol",
  "abi": [
    {
      "inputs": [],
      "stateMutability": "nonpayable",
      "type": "constructor"
    },
    {
      "anonymous": false,
      "inputs": [
        {
          "indexed": false,
          "internalType": "uint256",
          "name": "collectionId",
          "type": "uint256"
        },
        {
          "indexed": false,
          "internalType": "string",
          "name": "name",
          "type": "string"
        },
        {
          "indexed": false,
          "internalType": "string",
          "name": "symbol",
          "type": "string"
        },
        {
          "indexed": false,
          "internalType": "string",
          "name": "description",
          "type": "string"
        },
        {
          "indexed": false,
          "internalType": "string",
          "name": "image",
          "type": "string"
        },
        {
          "indexed": false,
          "internalType": "string",
          "name": "logo",
          "type": "string"
        },
        {
          "indexed": false,
          "internalType": "address",
          "name": "owner",
          "type": "address"
        },
        {
          "indexed": false,
          "internalType": "contract NFTCollection",
          "name": "collection_address",
          "type": "address"
        }
      ],
      "name": "CollectionCreated",
      "type": "event"
    },
    {
      "inputs": [
        {
          "internalType": "string",
          "name": "collection_name",
          "type": "string"
        },
        {
          "internalType": "string",
          "name": "collection_symbol",
          "type": "string"
        },
        {
          "internalType": "string",
          "name": "collection_image",
          "type": "string"
        },
        {
          "internalType": "string",
          "name": "collection_logo",
          "type": "string"
        },
        {
          "internalType": "string",
          "name": "collection_description",
          "type": "string"
        }
      ],
      "name": "create_collection",
      "outputs": [],
      "stateMutability": "nonpayable",
      "type": "function"
    },
    {
      "inputs": [],
      "name": "getAllCollections",
      "outputs": [
        {
          "components": [
            {
              "internalType": "uint256",
              "name": "collectionId",
              "type": "uint256"
            },
            {
              "internalType": "string",
              "name": "name",
              "type": "string"
            },
            {
              "internalType": "string",
              "name": "symbol",
              "type": "string"
            },
            {
              "internalType": "string",
              "name": "description",
              "type": "string"
            },
            {
              "internalType": "string",
              "name": "image",
              "type": "string"
            },
            {
              "internalType": "string",
              "name": "logo",
              "type": "string"
            },
            {
              "internalType": "address",
              "name": "owner",
              "type": "address"
            },
            {
              "internalType": "contract NFTCollection",
              "name": "collection_address",
              "type": "address"
            }
          ],
          "internalType": "struct CollectionFactory.Collection[]",
          "name": "",
          "type": "tuple[]"
        }
      ],
      "stateMutability": "view",
      "type": "function"
    },
    {
      "inputs": [
        {
          "internalType": "uint256",
          "name": "collection_id",
          "type": "uint256"
        }
      ],
      "name": "getCollectionById",
      "outputs": [
        {
          "components": [
            {
              "internalType": "uint256",
              "name": "collectionId",
              "type": "uint256"
            },
            {
              "internalType": "string",
              "name": "name",
              "type": "string"
            },
            {
              "internalType": "string",
              "name": "symbol",
              "type": "string"
            },
            {
              "internalType": "string",
              "name": "description",
              "type": "string"
            },
            {
              "internalType": "string",
              "name": "image",
              "type": "string"
            },
            {
              "internalType": "string",
              "name": "logo",
              "type": "string"
            },
            {
              "internalType": "address",
              "name": "owner",
              "type": "address"
            },
            {
              "internalType": "contract NFTCollection",
              "name": "collection_address",
              "type": "address"
            }
          ],
          "internalType": "struct CollectionFactory.Collection",
          "name": "",
          "type": "tuple"
        }
      ],
      "stateMutability": "view",
      "type": "function"
    },
    {
      "inputs": [],
      "name": "getMyCollections",
      "outputs": [
        {
          "components": [
            {
              "internalType": "uint256",
              "name": "collectionId",
              "type": "uint256"
            },
            {
              "internalType": "string",
              "name": "name",
              "type": "string"
            },
            {
              "internalType": "string",
              "name": "symbol",
              "type": "string"
            },
            {
              "internalType": "string",
              "name": "description",
              "type": "string"
            },
            {
              "internalType": "string",
              "name": "image",
              "type": "string"
            },
            {
              "internalType": "string",
              "name": "logo",
              "type": "string"
            },
            {
              "internalType": "address",
              "name": "owner",
              "type": "address"
            },
            {
              "internalType": "contract NFTCollection",
              "name": "collection_address",
              "type": "address"
            }
          ],
          "internalType": "struct CollectionFactory.Collection[]",
          "name": "",
          "type": "tuple[]"
        }
      ],
      "stateMutability": "view",
      "type": "function"
    }
  ],
  "bytecode": "0x608060405234801561001057600080fd5b5033600260006101000a81548173ffffffffffffffffffffffffffffffffffffffff021916908373ffffffffffffffffffffffffffffffffffffffff160217905550615331806100616000396000f3fe60806040523480156200001157600080fd5b5060043610620000525760003560e01c8063640ca1a714620000575780636804a9581462000077578063d61019801462000099578063e547cb8514620000bb575b600080fd5b6200007560048036038101906200006f919062001545565b620000f1565b005b62000081620004a9565b60405162000090919062001968565b60405180910390f35b620000a36200098a565b604051620000b2919062001968565b60405180910390f35b620000d96004803603810190620000d39190620019bd565b62000f44565b604051620000e8919062001acb565b60405180910390f35b6000620000ff60006200132c565b905060008686604051620001139062001350565b6200012092919062001b41565b604051809103906000f0801580156200013d573d6000803e3d6000fd5b50905060006040518061010001604052808481526020018981526020018881526020018581526020018781526020018681526020013373ffffffffffffffffffffffffffffffffffffffff1681526020018373ffffffffffffffffffffffffffffffffffffffff168152509050600360003373ffffffffffffffffffffffffffffffffffffffff1673ffffffffffffffffffffffffffffffffffffffff16815260200190815260200160002081908060018154018082558091505060019003906000526020600020906008020160009091909190915060008201518160000155602082015181600101908162000234919062001da8565b5060408201518160020190816200024c919062001da8565b50606082015181600301908162000264919062001da8565b5060808201518160040190816200027c919062001da8565b5060a082015181600501908162000294919062001da8565b5060c08201518160060160006101000a81548173ffffffffffffffffffffffffffffffffffffffff021916908373ffffffffffffffffffffffffffffffffffffffff16021790555060e08201518160070160006101000a81548173ffffffffffffffffffffffffffffffffffffffff021916908373ffffffffffffffffffffffffffffffffffffffff160217905550505080600460008581526020019081526020016000206000820151816000015560208201518160010190816200035a919062001da8565b50604082015181600201908162000372919062001da8565b5060608201518160030190816200038a919062001da8565b506080820151816004019081620003a2919062001da8565b5060a0820151816005019081620003ba919062001da8565b5060c08201518160060160006101000a81548173ffffffffffffffffffffffffffffffffffffffff021916908373ffffffffffffffffffffffffffffffffffffffff16021790555060e08201518160070160006101000a81548173ffffffffffffffffffffffffffffffffffffffff021916908373ffffffffffffffffffffffffffffffffffffffff1602179055509050506200045860006200133a565b7ff7329c93b093f3f1d592b81aab60367e7d1acc1e02bd88fb7313e6f852c85f8f838989878a8a33896040516200049798979695949392919062001ec2565b60405180910390a15050505050505050565b60606000620004b960006200132c565b905060008167ffffffffffffffff811115620004da57620004d9620013fe565b5b6040519080825280602002602001820160405280156200051757816020015b620005036200135e565b815260200190600190039081620004f95790505b509050600082101562000561576040517f08c379a0000000000000000000000000000000000000000000000000000000008152600401620005589062001fe9565b60405180910390fd5b60005b8281101562000981576000600460008381526020019081526020016000209050806040518061010001604052908160008201548152602001600182018054620005ad9062001bab565b80601f0160208091040260200160405190810160405280929190818152602001828054620005db9062001bab565b80156200062c5780601f1062000600576101008083540402835291602001916200062c565b820191906000526020600020905b8154815290600101906020018083116200060e57829003601f168201915b50505050508152602001600282018054620006479062001bab565b80601f0160208091040260200160405190810160405280929190818152602001828054620006759062001bab565b8015620006c65780601f106200069a57610100808354040283529160200191620006c6565b820191906000526020600020905b815481529060010190602001808311620006a857829003601f168201915b50505050508152602001600382018054620006e19062001bab565b80601f01602080910402602001604051908101604052809291908181526020018280546200070f9062001bab565b8015620007605780601f10620007345761010080835404028352916020019162000760565b820191906000526020600020905b8154815290600101906020018083116200074257829003601f168201915b505050505081526020016004820180546200077b9062001bab565b80601f0160208091040260200160405190810160405280929190818152602001828054620007a99062001bab565b8015620007fa5780601f10620007ce57610100808354040283529160200191620007fa565b820191906000526020600020905b815481529060010190602001808311620007dc57829003601f168201915b50505050508152602001600582018054620008159062001bab565b80601f0160208091040260200160405190810160405280929190818152602001828054620008439062001bab565b8015620008945780601f10620008685761010080835404028352916020019162000894565b820191906000526020600020905b8154815290600101906020018083116200087657829003601f168201915b505050505081526020016006820160009054906101000a900473ffffffffffffffffffffffffffffffffffffffff1673ffffffffffffffffffffffffffffffffffffffff1673ffffffffffffffffffffffffffffffffffffffff1681526020016007820160009054906101000a900473ffffffffffffffffffffffffffffffffffffffff1673ffffffffffffffffffffffffffffffffffffffff1673ffffffffffffffffffffffffffffffffffffffff16815250508383815181106200095f576200095e6200200b565b5b6020026020010181905250508080620009789062002069565b91505062000564565b50809250505090565b606060006200099a60006200132c565b905060008060005b8381101562000a3d573373ffffffffffffffffffffffffffffffffffffffff166004600083815260200190815260200160002060060160009054906101000a900473ffffffffffffffffffffffffffffffffffffffff1673ffffffffffffffffffffffffffffffffffffffff160362000a275760018362000a249190620020b6565b92505b808062000a349062002069565b915050620009a2565b5060008267ffffffffffffffff81111562000a5d5762000a5c620013fe565b5b60405190808252806020026020018201604052801562000a9a57816020015b62000a866200135e565b81526020019060019003908162000a7c5790505b50905060005b8481101562000f39573373ffffffffffffffffffffffffffffffffffffffff166004600083815260200190815260200160002060060160009054906101000a900473ffffffffffffffffffffffffffffffffffffffff1673ffffffffffffffffffffffffffffffffffffffff160362000f2357600060046000838152602001908152602001600020905080604051806101000160405290816000820154815260200160018201805462000b539062001bab565b80601f016020809104026020016040519081016040528092919081815260200182805462000b819062001bab565b801562000bd25780601f1062000ba65761010080835404028352916020019162000bd2565b820191906000526020600020905b81548152906001019060200180831162000bb457829003601f168201915b5050505050815260200160028201805462000bed9062001bab565b80601f016020809104026020016040519081016040528092919081815260200182805462000c1b9062001bab565b801562000c6c5780601f1062000c405761010080835404028352916020019162000c6c565b820191906000526020600020905b81548152906001019060200180831162000c4e57829003601f168201915b5050505050815260200160038201805462000c879062001bab565b80601f016020809104026020016040519081016040528092919081815260200182805462000cb59062001bab565b801562000d065780601f1062000cda5761010080835404028352916020019162000d06565b820191906000526020600020905b81548152906001019060200180831162000ce857829003601f168201915b5050505050815260200160048201805462000d219062001bab565b80601f016020809104026020016040519081016040528092919081815260200182805462000d4f9062001bab565b801562000da05780601f1062000d745761010080835404028352916020019162000da0565b820191906000526020600020905b81548152906001019060200180831162000d8257829003601f168201915b5050505050815260200160058201805462000dbb9062001bab565b80601f016020809104026020016040519081016040528092919081815260200182805462000de99062001bab565b801562000e3a5780601f1062000e0e5761010080835404028352916020019162000e3a565b820191906000526020600020905b81548152906001019060200180831162000e1c57829003601f168201915b505050505081526020016006820160009054906101000a900473ffffffffffffffffffffffffffffffffffffffff1673ffffffffffffffffffffffffffffffffffffffff1673ffffffffffffffffffffffffffffffffffffffff1681526020016007820160009054906101000a900473ffffffffffffffffffffffffffffffffffffffff1673ffffffffffffffffffffffffffffffffffffffff1673ffffffffffffffffffffffffffffffffffffffff168152505083858151811062000f055762000f046200200b565b5b602002602001018190525060018462000f1f9190620020b6565b9350505b808062000f309062002069565b91505062000aa0565b508094505050505090565b62000f4e6200135e565b60046000838152602001908152602001600020604051806101000160405290816000820154815260200160018201805462000f899062001bab565b80601f016020809104026020016040519081016040528092919081815260200182805462000fb79062001bab565b8015620010085780601f1062000fdc5761010080835404028352916020019162001008565b820191906000526020600020905b81548152906001019060200180831162000fea57829003601f168201915b50505050508152602001600282018054620010239062001bab565b80601f0160208091040260200160405190810160405280929190818152602001828054620010519062001bab565b8015620010a25780601f106200107657610100808354040283529160200191620010a2565b820191906000526020600020905b8154815290600101906020018083116200108457829003601f168201915b50505050508152602001600382018054620010bd9062001bab565b80601f0160208091040260200160405190810160405280929190818152602001828054620010eb9062001bab565b80156200113c5780601f1062001110576101008083540402835291602001916200113c565b820191906000526020600020905b8154815290600101906020018083116200111e57829003601f168201915b50505050508152602001600482018054620011579062001bab565b80601f0160208091040260200160405190810160405280929190818152602001828054620011859062001bab565b8015620011d65780601f10620011aa57610100808354040283529160200191620011d6565b820191906000526020600020905b815481529060010190602001808311620011b857829003601f168201915b50505050508152602001600582018054620011f19062001bab565b80601f01602080910402602001604051908101604052809291908181526020018280546200121f9062001bab565b8015620012705780601f10620012445761010080835404028352916020019162001270565b820191906000526020600020905b8154815290600101906020018083116200125257829003601f168201915b505050505081526020016006820160009054906101000a900473ffffffffffffffffffffffffffffffffffffffff1673ffffffffffffffffffffffffffffffffffffffff1673ffffffffffffffffffffffffffffffffffffffff1681526020016007820160009054906101000a900473ffffffffffffffffffffffffffffffffffffffff1673ffffffffffffffffffffffffffffffffffffffff1673ffffffffffffffffffffffffffffffffffffffff16815250509050919050565b600081600001549050919050565b6001816000016000828254019250508190555050565b61320a80620020f283390190565b604051806101000160405280600081526020016060815260200160608152602001606081526020016060815260200160608152602001600073ffffffffffffffffffffffffffffffffffffffff168152602001600073ffffffffffffffffffffffffffffffffffffffff1681525090565b6000604051905090565b600080fd5b600080fd5b600080fd5b600080fd5b6000601f19601f8301169050919050565b7f4e487b7100000000000000000000000000000000000000000000000000000000600052604160045260246000fd5b6200143882620013ed565b810181811067ffffffffffffffff821117156200145a5762001459620013fe565b5b80604052505050565b60006200146f620013cf565b90506200147d82826200142d565b919050565b600067ffffffffffffffff821115620014a0576200149f620013fe565b5b620014ab82620013ed565b9050602081019050919050565b82818337600083830152505050565b6000620014de620014d88462001482565b62001463565b905082815260208101848484011115620014fd57620014fc620013e8565b5b6200150a848285620014b8565b509392505050565b600082601f8301126200152a5762001529620013e3565b5b81356200153c848260208601620014c7565b91505092915050565b600080600080600060a08688031215620015645762001563620013d9565b5b600086013567ffffffffffffffff811115620015855762001584620013de565b5b620015938882890162001512565b955050602086013567ffffffffffffffff811115620015b757620015b6620013de565b5b620015c58882890162001512565b945050604086013567ffffffffffffffff811115620015e957620015e8620013de565b5b620015f78882890162001512565b935050606086013567ffffffffffffffff8111156200161b576200161a620013de565b5b620016298882890162001512565b925050608086013567ffffffffffffffff8111156200164d576200164c620013de565b5b6200165b8882890162001512565b9150509295509295909350565b600081519050919050565b600082825260208201905092915050565b6000819050602082019050919050565b6000819050919050565b620016a98162001694565b82525050565b600081519050919050565b600082825260208201905092915050565b60005b83811015620016eb578082015181840152602081019050620016ce565b60008484015250505050565b60006200170482620016af565b620017108185620016ba565b935062001722818560208601620016cb565b6200172d81620013ed565b840191505092915050565b600073ffffffffffffffffffffffffffffffffffffffff82169050919050565b6000620017658262001738565b9050919050565b620017778162001758565b82525050565b6000819050919050565b6000620017a8620017a26200179c8462001738565b6200177d565b62001738565b9050919050565b6000620017bc8262001787565b9050919050565b6000620017d082620017af565b9050919050565b620017e281620017c3565b82525050565b6000610100830160008301516200180360008601826200169e565b50602083015184820360208601526200181d8282620016f7565b91505060408301518482036040860152620018398282620016f7565b91505060608301518482036060860152620018558282620016f7565b91505060808301518482036080860152620018718282620016f7565b91505060a083015184820360a08601526200188d8282620016f7565b91505060c0830151620018a460c08601826200176c565b5060e0830151620018b960e0860182620017d7565b508091505092915050565b6000620018d28383620017e8565b905092915050565b6000602082019050919050565b6000620018f48262001668565b62001900818562001673565b935083602082028501620019148562001684565b8060005b85811015620019565784840389528151620019348582620018c4565b94506200194183620018da565b925060208a0199505060018101905062001918565b50829750879550505050505092915050565b60006020820190508181036000830152620019848184620018e7565b905092915050565b620019978162001694565b8114620019a357600080fd5b50565b600081359050620019b7816200198c565b92915050565b600060208284031215620019d657620019d5620013d9565b5b6000620019e684828501620019a6565b91505092915050565b60006101008301600083015162001a0a60008601826200169e565b506020830151848203602086015262001a248282620016f7565b9150506040830151848203604086015262001a408282620016f7565b9150506060830151848203606086015262001a5c8282620016f7565b9150506080830151848203608086015262001a788282620016f7565b91505060a083015184820360a086015262001a948282620016f7565b91505060c083015162001aab60c08601826200176c565b5060e083015162001ac060e0860182620017d7565b508091505092915050565b6000602082019050818103600083015262001ae78184620019ef565b905092915050565b600082825260208201905092915050565b600062001b0d82620016af565b62001b19818562001aef565b935062001b2b818560208601620016cb565b62001b3681620013ed565b840191505092915050565b6000604082019050818103600083015262001b5d818562001b00565b9050818103602083015262001b73818462001b00565b90509392505050565b7f4e487b7100000000000000000000000000000000000000000000000000000000600052602260045260246000fd5b6000600282049050600182168062001bc457607f821691505b60208210810362001bda5762001bd962001b7c565b5b50919050565b60008190508160005260206000209050919050565b60006020601f8301049050919050565b600082821b905092915050565b60006008830262001c447fffffffffffffffffffffffffffffffffffffffffffffffffffffffffffffffff8262001c05565b62001c50868362001c05565b95508019841693508086168417925050509392505050565b600062001c8962001c8362001c7d8462001694565b6200177d565b62001694565b9050919050565b6000819050919050565b62001ca58362001c68565b62001cbd62001cb48262001c90565b84845462001c12565b825550505050565b600090565b62001cd462001cc5565b62001ce181848462001c9a565b505050565b5b8181101562001d095762001cfd60008262001cca565b60018101905062001ce7565b5050565b601f82111562001d585762001d228162001be0565b62001d2d8462001bf5565b8101602085101562001d3d578190505b62001d5562001d4c8562001bf5565b83018262001ce6565b50505b505050565b600082821c905092915050565b600062001d7d6000198460080262001d5d565b1980831691505092915050565b600062001d98838362001d6a565b9150826002028217905092915050565b62001db382620016af565b67ffffffffffffffff81111562001dcf5762001dce620013fe565b5b62001ddb825462001bab565b62001de882828562001d0d565b600060209050601f83116001811462001e20576000841562001e0b578287015190505b62001e17858262001d8a565b86555062001e87565b601f19841662001e308662001be0565b60005b8281101562001e5a5784890151825560018201915060208501945060208101905062001e33565b8683101562001e7a578489015162001e76601f89168262001d6a565b8355505b6001600288020188555050505b505050505050565b62001e9a8162001694565b82525050565b62001eab8162001758565b82525050565b62001ebc81620017c3565b82525050565b60006101008201905062001eda600083018b62001e8f565b818103602083015262001eee818a62001b00565b9050818103604083015262001f04818962001b00565b9050818103606083015262001f1a818862001b00565b9050818103608083015262001f30818762001b00565b905081810360a083015262001f46818662001b00565b905062001f5760c083018562001ea0565b62001f6660e083018462001eb1565b9998505050505050505050565b7f796f752068617665206e6f74206372656174656420616e7920636f6c6c65637460008201527f696f6e0000000000000000000000000000000000000000000000000000000000602082015250565b600062001fd160238362001aef565b915062001fde8262001f73565b604082019050919050565b60006020820190508181036000830152620020048162001fc2565b9050919050565b7f4e487b7100000000000000000000000000000000000000000000000000000000600052603260045260246000fd5b7f4e487b7100000000000000000000000000000000000000000000000000000000600052601160045260246000fd5b6000620020768262001694565b91507fffffffffffffffffffffffffffffffffffffffffffffffffffffffffffffffff8203620020ab57620020aa6200203a565b5b600182019050919050565b6000620020c38262001694565b9150620020d08362001694565b9250828201905080821115620020eb57620020ea6200203a565b5b9291505056fe60806040523480156200001157600080fd5b506040516200320a3803806200320a8339818101604052810190620000379190620001fa565b818181600090816200004a9190620004ca565b5080600190816200005c9190620004ca565b5050505050620005b1565b6000604051905090565b600080fd5b600080fd5b600080fd5b600080fd5b6000601f19601f8301169050919050565b7f4e487b7100000000000000000000000000000000000000000000000000000000600052604160045260246000fd5b620000d08262000085565b810181811067ffffffffffffffff82111715620000f257620000f162000096565b5b80604052505050565b60006200010762000067565b9050620001158282620000c5565b919050565b600067ffffffffffffffff82111562000138576200013762000096565b5b620001438262000085565b9050602081019050919050565b60005b838110156200017057808201518184015260208101905062000153565b60008484015250505050565b6000620001936200018d846200011a565b620000fb565b905082815260208101848484011115620001b257620001b162000080565b5b620001bf84828562000150565b509392505050565b600082601f830112620001df57620001de6200007b565b5b8151620001f18482602086016200017c565b91505092915050565b6000806040838503121562000214576200021362000071565b5b600083015167ffffffffffffffff81111562000235576200023462000076565b5b6200024385828601620001c7565b925050602083015167ffffffffffffffff81111562000267576200026662000076565b5b6200027585828601620001c7565b9150509250929050565b600081519050919050565b7f4e487b7100000000000000000000000000000000000000000000000000000000600052602260045260246000fd5b60006002820490506001821680620002d257607f821691505b602082108103620002e857620002e76200028a565b5b50919050565b60008190508160005260206000209050919050565b60006020601f8301049050919050565b600082821b905092915050565b600060088302620003527fffffffffffffffffffffffffffffffffffffffffffffffffffffffffffffffff8262000313565b6200035e868362000313565b95508019841693508086168417925050509392505050565b6000819050919050565b6000819050919050565b6000620003ab620003a56200039f8462000376565b62000380565b62000376565b9050919050565b6000819050919050565b620003c7836200038a565b620003df620003d682620003b2565b84845462000320565b825550505050565b600090565b620003f6620003e7565b62000403818484620003bc565b505050565b5b818110156200042b576200041f600082620003ec565b60018101905062000409565b5050565b601f8211156200047a576200044481620002ee565b6200044f8462000303565b810160208510156200045f578190505b620004776200046e8562000303565b83018262000408565b50505b505050565b600082821c905092915050565b60006200049f600019846008026200047f565b1980831691505092915050565b6000620004ba83836200048c565b9150826002028217905092915050565b620004d5826200027f565b67ffffffffffffffff811115620004f157620004f062000096565b5b620004fd8254620002b9565b6200050a8282856200042f565b600060209050601f8311600181146200054257600084156200052d578287015190505b620005398582620004ac565b865550620005a9565b601f1984166200055286620002ee565b60005b828110156200057c5784890151825560018201915060208501945060208101905062000555565b868310156200059c578489015162000598601f8916826200048c565b8355505b6001600288020188555050505b505050505050565b612c4980620005c16000396000f3fe6080604052600436106100dd5760003560e01c80636352211e1161007f578063a22cb46511610059578063a22cb465146102d7578063b88d4fde14610300578063c87b56dd14610329578063e985e9c514610366576100dd565b80636352211e1461023257806370a082311461026f57806395d89b41146102ac576100dd565b8063095ea7b3116100bb578063095ea7b31461018757806323b872dd146101b057806342842e0e146101d957806345576f9414610202576100dd565b806301ffc9a7146100e257806306fdde031461011f578063081812fc1461014a575b600080fd5b3480156100ee57600080fd5b5061010960048036038101906101049190611b1b565b6103a3565b6040516101169190611b63565b60405180910390f35b34801561012b57600080fd5b50610134610404565b6040516101419190611c0e565b60405180910390f35b34801561015657600080fd5b50610171600480360381019061016c9190611c66565b610496565b60405161017e9190611cd4565b60405180910390f35b34801561019357600080fd5b506101ae60048036038101906101a99190611d1b565b6104dc565b005b3480156101bc57600080fd5b506101d760048036038101906101d29190611d5b565b6105f3565b005b3480156101e557600080fd5b5061020060048036038101906101fb9190611d5b565b610653565b005b61021c60048036038101906102179190611ee3565b610673565b6040516102299190611f3b565b60405180910390f35b34801561023e57600080fd5b5061025960048036038101906102549190611c66565b6106e2565b6040516102669190611cd4565b60405180910390f35b34801561027b57600080fd5b5061029660048036038101906102919190611f56565b610768565b6040516102a39190611f3b565b60405180910390f35b3480156102b857600080fd5b506102c161081f565b6040516102ce9190611c0e565b60405180910390f35b3480156102e357600080fd5b506102fe60048036038101906102f99190611faf565b6108b1565b005b34801561030c57600080fd5b5061032760048036038101906103229190612090565b6108c7565b005b34801561033557600080fd5b50610350600480360381019061034b9190611c66565b610929565b60405161035d9190611c0e565b60405180910390f35b34801561037257600080fd5b5061038d60048036038101906103889190612113565b610a3b565b60405161039a9190611b63565b60405180910390f35b6000634906490660e01b7bffffffffffffffffffffffffffffffffffffffffffffffffffffffff1916827bffffffffffffffffffffffffffffffffffffffffffffffffffffffff191614806103fd57506103fc82610acf565b5b9050919050565b60606000805461041390612182565b80601f016020809104026020016040519081016040528092919081815260200182805461043f90612182565b801561048c5780601f106104615761010080835404028352916020019161048c565b820191906000526020600020905b81548152906001019060200180831161046f57829003601f168201915b5050505050905090565b60006104a182610bb1565b6004600083815260200190815260200160002060009054906101000a900473ffffffffffffffffffffffffffffffffffffffff169050919050565b60006104e7826106e2565b90508073ffffffffffffffffffffffffffffffffffffffff168373ffffffffffffffffffffffffffffffffffffffff1603610557576040517f08c379a000000000000000000000000000000000000000000000000000000000815260040161054e90612225565b60405180910390fd5b8073ffffffffffffffffffffffffffffffffffffffff16610576610bfc565b73ffffffffffffffffffffffffffffffffffffffff1614806105a557506105a48161059f610bfc565b610a3b565b5b6105e4576040517f08c379a00000000000000000000000000000000000000000000000000000000081526004016105db906122b7565b60405180910390fd5b6105ee8383610c04565b505050565b6106046105fe610bfc565b82610cbd565b610643576040517f08c379a000000000000000000000000000000000000000000000000000000000815260040161063a90612349565b60405180910390fd5b61064e838383610d52565b505050565b61066e838383604051806020016040528060008152506108c7565b505050565b600080610680600761104b565b905061068c3382611059565b6106968184611077565b6106a0600761111b565b7f2031bb75fe7acfeb75a155106919ca62ef2e240732a3bf6035ce09f71698833e83826040516106d1929190612369565b60405180910390a180915050919050565b6000806106ee83611131565b9050600073ffffffffffffffffffffffffffffffffffffffff168173ffffffffffffffffffffffffffffffffffffffff160361075f576040517f08c379a0000000000000000000000000000000000000000000000000000000008152600401610756906123e5565b60405180910390fd5b80915050919050565b60008073ffffffffffffffffffffffffffffffffffffffff168273ffffffffffffffffffffffffffffffffffffffff16036107d8576040517f08c379a00000000000000000000000000000000000000000000000000000000081526004016107cf90612477565b60405180910390fd5b600360008373ffffffffffffffffffffffffffffffffffffffff1673ffffffffffffffffffffffffffffffffffffffff168152602001908152602001600020549050919050565b60606001805461082e90612182565b80601f016020809104026020016040519081016040528092919081815260200182805461085a90612182565b80156108a75780601f1061087c576101008083540402835291602001916108a7565b820191906000526020600020905b81548152906001019060200180831161088a57829003601f168201915b5050505050905090565b6108c36108bc610bfc565b838361116e565b5050565b6108d86108d2610bfc565b83610cbd565b610917576040517f08c379a000000000000000000000000000000000000000000000000000000000815260040161090e90612349565b60405180910390fd5b610923848484846112da565b50505050565b606061093482610bb1565b600060066000848152602001908152602001600020805461095490612182565b80601f016020809104026020016040519081016040528092919081815260200182805461098090612182565b80156109cd5780601f106109a2576101008083540402835291602001916109cd565b820191906000526020600020905b8154815290600101906020018083116109b057829003601f168201915b5050505050905060006109de611336565b905060008151036109f3578192505050610a36565b600082511115610a28578082604051602001610a109291906124d3565b60405160208183030381529060405292505050610a36565b610a318461134d565b925050505b919050565b6000600560008473ffffffffffffffffffffffffffffffffffffffff1673ffffffffffffffffffffffffffffffffffffffff16815260200190815260200160002060008373ffffffffffffffffffffffffffffffffffffffff1673ffffffffffffffffffffffffffffffffffffffff16815260200190815260200160002060009054906101000a900460ff16905092915050565b60007f80ac58cd000000000000000000000000000000000000000000000000000000007bffffffffffffffffffffffffffffffffffffffffffffffffffffffff1916827bffffffffffffffffffffffffffffffffffffffffffffffffffffffff19161480610b9a57507f5b5e139f000000000000000000000000000000000000000000000000000000007bffffffffffffffffffffffffffffffffffffffffffffffffffffffff1916827bffffffffffffffffffffffffffffffffffffffffffffffffffffffff1916145b80610baa5750610ba9826113b5565b5b9050919050565b610bba8161141f565b610bf9576040517f08c379a0000000000000000000000000000000000000000000000000000000008152600401610bf0906123e5565b60405180910390fd5b50565b600033905090565b816004600083815260200190815260200160002060006101000a81548173ffffffffffffffffffffffffffffffffffffffff021916908373ffffffffffffffffffffffffffffffffffffffff160217905550808273ffffffffffffffffffffffffffffffffffffffff16610c77836106e2565b73ffffffffffffffffffffffffffffffffffffffff167f8c5be1e5ebec7d5bd14f71427d1e84f3dd0314c0f7b2291e5b200ac8c7c3b92560405160405180910390a45050565b600080610cc9836106e2565b90508073ffffffffffffffffffffffffffffffffffffffff168473ffffffffffffffffffffffffffffffffffffffff161480610d0b5750610d0a8185610a3b565b5b80610d4957508373ffffffffffffffffffffffffffffffffffffffff16610d3184610496565b73ffffffffffffffffffffffffffffffffffffffff16145b91505092915050565b8273ffffffffffffffffffffffffffffffffffffffff16610d72826106e2565b73ffffffffffffffffffffffffffffffffffffffff1614610dc8576040517f08c379a0000000000000000000000000000000000000000000000000000000008152600401610dbf90612569565b60405180910390fd5b600073ffffffffffffffffffffffffffffffffffffffff168273ffffffffffffffffffffffffffffffffffffffff1603610e37576040517f08c379a0000000000000000000000000000000000000000000000000000000008152600401610e2e906125fb565b60405180910390fd5b610e448383836001611460565b8273ffffffffffffffffffffffffffffffffffffffff16610e64826106e2565b73ffffffffffffffffffffffffffffffffffffffff1614610eba576040517f08c379a0000000000000000000000000000000000000000000000000000000008152600401610eb190612569565b60405180910390fd5b6004600082815260200190815260200160002060006101000a81549073ffffffffffffffffffffffffffffffffffffffff02191690556001600360008573ffffffffffffffffffffffffffffffffffffffff1673ffffffffffffffffffffffffffffffffffffffff168152602001908152602001600020600082825403925050819055506001600360008473ffffffffffffffffffffffffffffffffffffffff1673ffffffffffffffffffffffffffffffffffffffff16815260200190815260200160002060008282540192505081905550816002600083815260200190815260200160002060006101000a81548173ffffffffffffffffffffffffffffffffffffffff021916908373ffffffffffffffffffffffffffffffffffffffff160217905550808273ffffffffffffffffffffffffffffffffffffffff168473ffffffffffffffffffffffffffffffffffffffff167fddf252ad1be2c89b69c2b068fc378daa952ba7f163c4a11628f55a4df523b3ef60405160405180910390a46110468383836001611466565b505050565b600081600001549050919050565b61107382826040518060200160405280600081525061146c565b5050565b6110808261141f565b6110bf576040517f08c379a00000000000000000000000000000000000000000000000000000000081526004016110b69061268d565b60405180910390fd5b806006600084815260200190815260200160002090816110df9190612859565b507ff8e1a15aba9398e019f0b49df1a4fde98ee17ae345cb5f6b5e2c27f5033e8ce78260405161110f9190611f3b565b60405180910390a15050565b6001816000016000828254019250508190555050565b60006002600083815260200190815260200160002060009054906101000a900473ffffffffffffffffffffffffffffffffffffffff169050919050565b8173ffffffffffffffffffffffffffffffffffffffff168373ffffffffffffffffffffffffffffffffffffffff16036111dc576040517f08c379a00000000000000000000000000000000000000000000000000000000081526004016111d390612977565b60405180910390fd5b80600560008573ffffffffffffffffffffffffffffffffffffffff1673ffffffffffffffffffffffffffffffffffffffff16815260200190815260200160002060008473ffffffffffffffffffffffffffffffffffffffff1673ffffffffffffffffffffffffffffffffffffffff16815260200190815260200160002060006101000a81548160ff0219169083151502179055508173ffffffffffffffffffffffffffffffffffffffff168373ffffffffffffffffffffffffffffffffffffffff167f17307eab39ab6107e8899845ad3d59bd9653f200f220920489ca2b5937696c31836040516112cd9190611b63565b60405180910390a3505050565b6112e5848484610d52565b6112f1848484846114c7565b611330576040517f08c379a000000000000000000000000000000000000000000000000000000000815260040161132790612a09565b60405180910390fd5b50505050565b606060405180602001604052806000815250905090565b606061135882610bb1565b6000611362611336565b9050600081511161138257604051806020016040528060008152506113ad565b8061138c8461164e565b60405160200161139d9291906124d3565b6040516020818303038152906040525b915050919050565b60007f01ffc9a7000000000000000000000000000000000000000000000000000000007bffffffffffffffffffffffffffffffffffffffffffffffffffffffff1916827bffffffffffffffffffffffffffffffffffffffffffffffffffffffff1916149050919050565b60008073ffffffffffffffffffffffffffffffffffffffff1661144183611131565b73ffffffffffffffffffffffffffffffffffffffff1614159050919050565b50505050565b50505050565b611476838361171c565b61148360008484846114c7565b6114c2576040517f08c379a00000000000000000000000000000000000000000000000000000000081526004016114b990612a09565b60405180910390fd5b505050565b60006114e88473ffffffffffffffffffffffffffffffffffffffff16611939565b15611641578373ffffffffffffffffffffffffffffffffffffffff1663150b7a02611511610bfc565b8786866040518563ffffffff1660e01b81526004016115339493929190612a7e565b6020604051808303816000875af192505050801561156f57506040513d601f19601f8201168201806040525081019061156c9190612adf565b60015b6115f1573d806000811461159f576040519150601f19603f3d011682016040523d82523d6000602084013e6115a4565b606091505b5060008151036115e9576040517f08c379a00000000000000000000000000000000000000000000000000000000081526004016115e090612a09565b60405180910390fd5b805181602001fd5b63150b7a0260e01b7bffffffffffffffffffffffffffffffffffffffffffffffffffffffff1916817bffffffffffffffffffffffffffffffffffffffffffffffffffffffff191614915050611646565b600190505b949350505050565b60606000600161165d8461195c565b01905060008167ffffffffffffffff81111561167c5761167b611db8565b5b6040519080825280601f01601f1916602001820160405280156116ae5781602001600182028036833780820191505090505b509050600082602001820190505b600115611711578080600190039150507f3031323334353637383961626364656600000000000000000000000000000000600a86061a8153600a858161170557611704612b0c565b5b049450600085036116bc575b819350505050919050565b600073ffffffffffffffffffffffffffffffffffffffff168273ffffffffffffffffffffffffffffffffffffffff160361178b576040517f08c379a000000000000000000000000000000000000000000000000000000000815260040161178290612b87565b60405180910390fd5b6117948161141f565b156117d4576040517f08c379a00000000000000000000000000000000000000000000000000000000081526004016117cb90612bf3565b60405180910390fd5b6117e2600083836001611460565b6117eb8161141f565b1561182b576040517f08c379a000000000000000000000000000000000000000000000000000000000815260040161182290612bf3565b60405180910390fd5b6001600360008473ffffffffffffffffffffffffffffffffffffffff1673ffffffffffffffffffffffffffffffffffffffff16815260200190815260200160002060008282540192505081905550816002600083815260200190815260200160002060006101000a81548173ffffffffffffffffffffffffffffffffffffffff021916908373ffffffffffffffffffffffffffffffffffffffff160217905550808273ffffffffffffffffffffffffffffffffffffffff16600073ffffffffffffffffffffffffffffffffffffffff167fddf252ad1be2c89b69c2b068fc378daa952ba7f163c4a11628f55a4df523b3ef60405160405180910390a4611935600083836001611466565b5050565b6000808273ffffffffffffffffffffffffffffffffffffffff163b119050919050565b600080600090507a184f03e93ff9f4daa797ed6e38ed64bf6a1f01000000000000000083106119ba577a184f03e93ff9f4daa797ed6e38ed64bf6a1f01000000000000000083816119b0576119af612b0c565b5b0492506040810190505b6d04ee2d6d415b85acef810000000083106119f7576d04ee2d6d415b85acef810000000083816119ed576119ec612b0c565b5b0492506020810190505b662386f26fc100008310611a2657662386f26fc100008381611a1c57611a1b612b0c565b5b0492506010810190505b6305f5e1008310611a4f576305f5e1008381611a4557611a44612b0c565b5b0492506008810190505b6127108310611a74576127108381611a6a57611a69612b0c565b5b0492506004810190505b60648310611a975760648381611a8d57611a8c612b0c565b5b0492506002810190505b600a8310611aa6576001810190505b80915050919050565b6000604051905090565b600080fd5b600080fd5b60007fffffffff0000000000000000000000000000000000000000000000000000000082169050919050565b611af881611ac3565b8114611b0357600080fd5b50565b600081359050611b1581611aef565b92915050565b600060208284031215611b3157611b30611ab9565b5b6000611b3f84828501611b06565b91505092915050565b60008115159050919050565b611b5d81611b48565b82525050565b6000602082019050611b786000830184611b54565b92915050565b600081519050919050565b600082825260208201905092915050565b60005b83811015611bb8578082015181840152602081019050611b9d565b60008484015250505050565b6000601f19601f8301169050919050565b6000611be082611b7e565b611bea8185611b89565b9350611bfa818560208601611b9a565b611c0381611bc4565b840191505092915050565b60006020820190508181036000830152611c288184611bd5565b905092915050565b6000819050919050565b611c4381611c30565b8114611c4e57600080fd5b50565b600081359050611c6081611c3a565b92915050565b600060208284031215611c7c57611c7b611ab9565b5b6000611c8a84828501611c51565b91505092915050565b600073ffffffffffffffffffffffffffffffffffffffff82169050919050565b6000611cbe82611c93565b9050919050565b611cce81611cb3565b82525050565b6000602082019050611ce96000830184611cc5565b92915050565b611cf881611cb3565b8114611d0357600080fd5b50565b600081359050611d1581611cef565b92915050565b60008060408385031215611d3257611d31611ab9565b5b6000611d4085828601611d06565b9250506020611d5185828601611c51565b9150509250929050565b600080600060608486031215611d7457611d73611ab9565b5b6000611d8286828701611d06565b9350506020611d9386828701611d06565b9250506040611da486828701611c51565b9150509250925092565b600080fd5b600080fd5b7f4e487b7100000000000000000000000000000000000000000000000000000000600052604160045260246000fd5b611df082611bc4565b810181811067ffffffffffffffff82111715611e0f57611e0e611db8565b5b80604052505050565b6000611e22611aaf565b9050611e2e8282611de7565b919050565b600067ffffffffffffffff821115611e4e57611e4d611db8565b5b611e5782611bc4565b9050602081019050919050565b82818337600083830152505050565b6000611e86611e8184611e33565b611e18565b905082815260208101848484011115611ea257611ea1611db3565b5b611ead848285611e64565b509392505050565b600082601f830112611eca57611ec9611dae565b5b8135611eda848260208601611e73565b91505092915050565b600060208284031215611ef957611ef8611ab9565b5b600082013567ffffffffffffffff811115611f1757611f16611abe565b5b611f2384828501611eb5565b91505092915050565b611f3581611c30565b82525050565b6000602082019050611f506000830184611f2c565b92915050565b600060208284031215611f6c57611f6b611ab9565b5b6000611f7a84828501611d06565b91505092915050565b611f8c81611b48565b8114611f9757600080fd5b50565b600081359050611fa981611f83565b92915050565b60008060408385031215611fc657611fc5611ab9565b5b6000611fd485828601611d06565b9250506020611fe585828601611f9a565b9150509250929050565b600067ffffffffffffffff82111561200a57612009611db8565b5b61201382611bc4565b9050602081019050919050565b600061203361202e84611fef565b611e18565b90508281526020810184848401111561204f5761204e611db3565b5b61205a848285611e64565b509392505050565b600082601f83011261207757612076611dae565b5b8135612087848260208601612020565b91505092915050565b600080600080608085870312156120aa576120a9611ab9565b5b60006120b887828801611d06565b94505060206120c987828801611d06565b93505060406120da87828801611c51565b925050606085013567ffffffffffffffff8111156120fb576120fa611abe565b5b61210787828801612062565b91505092959194509250565b6000806040838503121561212a57612129611ab9565b5b600061213885828601611d06565b925050602061214985828601611d06565b9150509250929050565b7f4e487b7100000000000000000000000000000000000000000000000000000000600052602260045260246000fd5b6000600282049050600182168061219a57607f821691505b6020821081036121ad576121ac612153565b5b50919050565b7f4552433732313a20617070726f76616c20746f2063757272656e74206f776e6560008201527f7200000000000000000000000000000000000000000000000000000000000000602082015250565b600061220f602183611b89565b915061221a826121b3565b604082019050919050565b6000602082019050818103600083015261223e81612202565b9050919050565b7f4552433732313a20617070726f76652063616c6c6572206973206e6f7420746f60008201527f6b656e206f776e6572206f7220617070726f76656420666f7220616c6c000000602082015250565b60006122a1603d83611b89565b91506122ac82612245565b604082019050919050565b600060208201905081810360008301526122d081612294565b9050919050565b7f4552433732313a2063616c6c6572206973206e6f7420746f6b656e206f776e6560008201527f72206f7220617070726f76656400000000000000000000000000000000000000602082015250565b6000612333602d83611b89565b915061233e826122d7565b604082019050919050565b6000602082019050818103600083015261236281612326565b9050919050565b600060408201905081810360008301526123838185611bd5565b90506123926020830184611f2c565b9392505050565b7f4552433732313a20696e76616c696420746f6b656e2049440000000000000000600082015250565b60006123cf601883611b89565b91506123da82612399565b602082019050919050565b600060208201905081810360008301526123fe816123c2565b9050919050565b7f4552433732313a2061646472657373207a65726f206973206e6f74206120766160008201527f6c6964206f776e65720000000000000000000000000000000000000000000000602082015250565b6000612461602983611b89565b915061246c82612405565b604082019050919050565b6000602082019050818103600083015261249081612454565b9050919050565b600081905092915050565b60006124ad82611b7e565b6124b78185612497565b93506124c7818560208601611b9a565b80840191505092915050565b60006124df82856124a2565b91506124eb82846124a2565b91508190509392505050565b7f4552433732313a207472616e736665722066726f6d20696e636f72726563742060008201527f6f776e6572000000000000000000000000000000000000000000000000000000602082015250565b6000612553602583611b89565b915061255e826124f7565b604082019050919050565b6000602082019050818103600083015261258281612546565b9050919050565b7f4552433732313a207472616e7366657220746f20746865207a65726f2061646460008201527f7265737300000000000000000000000000000000000000000000000000000000602082015250565b60006125e5602483611b89565b91506125f082612589565b604082019050919050565b60006020820190508181036000830152612614816125d8565b9050919050565b7f45524337323155524953746f726167653a2055524920736574206f66206e6f6e60008201527f6578697374656e7420746f6b656e000000000000000000000000000000000000602082015250565b6000612677602e83611b89565b91506126828261261b565b604082019050919050565b600060208201905081810360008301526126a68161266a565b9050919050565b60008190508160005260206000209050919050565b60006020601f8301049050919050565b600082821b905092915050565b60006008830261270f7fffffffffffffffffffffffffffffffffffffffffffffffffffffffffffffffff826126d2565b61271986836126d2565b95508019841693508086168417925050509392505050565b6000819050919050565b600061275661275161274c84611c30565b612731565b611c30565b9050919050565b6000819050919050565b6127708361273b565b61278461277c8261275d565b8484546126df565b825550505050565b600090565b61279961278c565b6127a4818484612767565b505050565b5b818110156127c8576127bd600082612791565b6001810190506127aa565b5050565b601f82111561280d576127de816126ad565b6127e7846126c2565b810160208510156127f6578190505b61280a612802856126c2565b8301826127a9565b50505b505050565b600082821c905092915050565b600061283060001984600802612812565b1980831691505092915050565b6000612849838361281f565b9150826002028217905092915050565b61286282611b7e565b67ffffffffffffffff81111561287b5761287a611db8565b5b6128858254612182565b6128908282856127cc565b600060209050601f8311600181146128c357600084156128b1578287015190505b6128bb858261283d565b865550612923565b601f1984166128d1866126ad565b60005b828110156128f9578489015182556001820191506020850194506020810190506128d4565b868310156129165784890151612912601f89168261281f565b8355505b6001600288020188555050505b505050505050565b7f4552433732313a20617070726f766520746f2063616c6c657200000000000000600082015250565b6000612961601983611b89565b915061296c8261292b565b602082019050919050565b6000602082019050818103600083015261299081612954565b9050919050565b7f4552433732313a207472616e7366657220746f206e6f6e20455243373231526560008201527f63656976657220696d706c656d656e7465720000000000000000000000000000602082015250565b60006129f3603283611b89565b91506129fe82612997565b604082019050919050565b60006020820190508181036000830152612a22816129e6565b9050919050565b600081519050919050565b600082825260208201905092915050565b6000612a5082612a29565b612a5a8185612a34565b9350612a6a818560208601611b9a565b612a7381611bc4565b840191505092915050565b6000608082019050612a936000830187611cc5565b612aa06020830186611cc5565b612aad6040830185611f2c565b8181036060830152612abf8184612a45565b905095945050505050565b600081519050612ad981611aef565b92915050565b600060208284031215612af557612af4611ab9565b5b6000612b0384828501612aca565b91505092915050565b7f4e487b7100000000000000000000000000000000000000000000000000000000600052601260045260246000fd5b7f4552433732313a206d696e7420746f20746865207a65726f2061646472657373600082015250565b6000612b71602083611b89565b9150612b7c82612b3b565b602082019050919050565b60006020820190508181036000830152612ba081612b64565b9050919050565b7f4552433732313a20746f6b656e20616c7265616479206d696e74656400000000600082015250565b6000612bdd601c83611b89565b9150612be882612ba7565b602082019050919050565b60006020820190508181036000830152612c0c81612bd0565b905091905056fea26469706673582212200fd3dc3d837e07c4fa42084a957cb7e4d9f5af6767903ba4d62e7472418ac6f064736f6c63430008130033a2646970667358221220684512266ab20fc5d01dda3c0a4ba7ac3e52c98695b9c73142f0378418e928b664736f6c63430008130033",
  "linkReferences": {},
  "deployedLinkReferences": {}
}